S01000004343523556352E312E737265631D
S11300000C943B000C94740C0C949B0C0C94C20C3C
S11300100C9458000C9458000C9458000C945800FC
S11300200C9458000C9458000C9458000C94520DE5
S11300300C9458000C9458000C9458000C945800DC
S11300400C9458000C9458000C9458000C945800CC
S11300500C94580050066B067806040693069B061B
S1130060A306040609070406040604060406040697
S113007004060406C70611241FBECFE5D8E0DEBF80
S1130080CDBF12E0A0E6B0E0E0E6FCE102C00590DE
S11300900D92AC35B107D9F722E0ACE5B2E001C06E
S11300A01D92AC37B207E1F70E94DE050C942E0EC8
S11300B00C9400000E94600708950E94720708953E
S11300C00E940C090E949E070E945B070E94530A2B
S11300D084E00E94CC0981E00E94CC090E94450A78
S11300E084E00E940A0A81E00E940A0A0E944E0AE1
S11300F083E00E94290A61E083E00E94110B81E001
S11301000E943D0C61E085E20E94880A089506C0C1
S113011084E00E94EB0981E080935C020E94C7079F
S11301208233B1F384E00E940A0A10925C020895BB
S1130130809167028F5F809367028C3339F4109249
S11301406702809161008F5F8093610080916100FC
S11301508C3339F410926100809160008F5F80933A
S1130160600080916000883131F410926000109238
S1130170610010926702E0919E00F0919F008081DF
S1130180843031F480915E02811102C00E947704B0
S113019008958091680290E09C01220F331F220F82
S11301A0331F820F931F62E170E00E94A50DCB0103
S11301B0770FAA0BBB0B40916302509164026091CC
S11301C0650270916602840F951FA61FB71F809366
S11301D0630290936402A0936502B0936602883E22
S11301E023E09207A105B10500F140915F0250910F
S11301F0600260916102709162024F5F5F4F6F4FC6
S11302007F4F40935F02509360026093610270934A
S11302106202885E9340A109B109809363029093BE
S11302206402A0936502B093660208950E94980048
S11302300E94C90080911C02811109C020916802AA
S113024090911B02921718F40E944A0A0AC0813046
S113025031F09091680280911B02981710F40E946B
S11302604E0A809169028F5F80936902843161F440
S1130270E091DA01F091DB018081843429F40E9459
S1130280020581E080935E0290915D028DEC989F5F
S1130290812D112486958695282F220F220F820FF7
S11302A0981304C00E940D050E94B80580915D0258
S11302B08F5F80935D020895E091DA01F091DB0194
S11302C080818E3439F0823541F0843449F080E005
S11302D090E008958FED91E0089587E092E008950D
S11302E083EF91E008958091B101813061F4E09150
S11302F0DA01F091DB019081943429F40E945A00D0
S11303001092B1010895811105C00E945A0081E044
S11303108093B10108958091B101813029F088233F
S113032031F080E090E0089582EB91E0089586EC4E
S113033091E0089580918801813019F41092880128
S11303400895811103C081E080938801089580910C
S11303508801813029F0882331F080E090E008950D
S113036089E891E008958DE991E0089580911C0257
S1130370813051F4E091DA01F091DB019081943401
S113038019F410921C020895811103C081E0809336
S11303901C02089580911C02813029F0882331F0D9
S11303A080E090E0089580E691E0089584E791E08C
S11303B0089580916A02882329F0813031F080E029
S11303C090E0089581E291E0089585E391E0089535
S11303D080915C02813009F05AC00E945D00E09176
S11303E0DA01F091DB0180818E3469F481E080933D
S11303F0B10180931C0210926A023196F093DB01E2
S1130400E093DA013CC08235E1F481E080936A0232
S1130410E0919E00F0919F008081811108C06AE004
S113042083E00E94AD090E94D9010E94370980919E
S1130430DA019091DB0101969093DB018093DA015C
S11304401EC08434E1F481E08093B10180931C02E6
S113045010926A02E0919E00F0919F0080818111C8
S113046008C06AE083E00E94AD090E94D9010E949D
S113047037098CED91E09093DB018093DA0160E021
S113048080E00E94AD090E945C010E943709089532
S11304900E944A090E945C010E94370961E180E0E0
S11304A00E94AD0981ED90E00E94370960E081E08F
S11304B00E94AD090E948B010E94370960E082E02E
S11304C00E94AD090E94A7010E94370960E083E001
S11304D00E94AD090E94CA010E9437090E94D901F5
S11304E00E94370908958F929F92AF92BF92CF9244
S11304F0DF92EF92FF924B015C0169017A010E9445
S11305004A090E945C010E94370961E180E00E946F
S1130510AD0985EE90E00E94370960E081E00E9419
S1130520AD090E94CA010E94370960E082E00E947E
S1130530AD0984E591E00E943709C501B4010E9428
S11305404E0984EA90E00E94370960E083E00E944B
S1130550AD0989E491E00E943709C701B6010E9400
S11305604E0984EA90E00E943709FF90EF90DF90F3
S1130570CF90BF90AF909F908F9008950E944A09AA
S11305800E945C010E94370961E180E00E94AD098C
S113059089EF90E00E94370960E081E00E94AD0994
S11305A084EC90E00E94370966E370E080E090E01C
S11305B00E944E0985E20E944C0860E082E00E949D
S11305C0AD0988EB90E00E9437096EE370E080E0AB
S11305D090E00E944E0985E20E944C0860E083E0AE
S11305E00E94AD098BEA90E00E94370960E570E053
S11305F080E090E00E944E0983E40E944C08089534
S11306000E944A090E945C010E94370961E180E06E
S11306100E94AD098DE091E00E94370960E081E01D
S11306200E94AD098AE890E00E94370960E082E008
S11306300E94AD0986E790E00E943709809160002E
S11306408A3088F466E082E00E94AD0960E070E0E0
S1130650CB010E944E096091600070E080E090E060
S11306600E944E090BC066E082E00E94AD096091D1
S1130670600070E080E090E00E944E098AE30E94EE
S11306804C08809161008A3088F469E082E00E941D
S1130690AD0960E070E0CB010E944E0960916100F9
S11306A070E080E090E00E944E090BC069E082E0B7
S11306B00E94AD096091610070E080E090E00E94CA
S11306C04E098AE30E944C08809167028A3088F4BC
S11306D06CE082E00E94AD0960E070E0CB010E9412
S11306E04E096091670270E080E090E00E944E093C
S11306F00FC06CE082E00E94AD096091670270E077
S113070080E090E00E944E0986E292E00E94370960
S113071060E083E00E94AD0982E690E00E94370920
S113072060915F0270916002809161029091620217
S11307300E944E098CE292E00E94370960916302A4
S11307407091640280916502909166020E944E0944
S113075081E392E00E9437090895E0919E00F091B0
S11307609F008081811103C00E9448020895813056
S113077069F42091680230E040E050E060911B028F
S113078070E080E090E00E9473020895823019F4D2
S11307900E94BE020895843021F4F8940E9400035C
S11307A078940895882349F1813009F04AC0E09192
S11307B09E00F0919F008081811106C03196F093D4
S11307C09F00E0939E003DC0813031F43196F09358
S11307D09F00E0939E0035C0823031F43196F0934F
S11307E09F00E0939E002DC0843059F580EA90E08C
S11307F090939F0080939E0024C0E0919E00F0910E
S11308009F008081811106C03396F0939F00E0938E
S11308109E0017C0813031F43197F0939F00E0932C
S11308209E000FC0823031F43197F0939F00E09323
S11308309E0007C0843029F43197F0939F00E09321
S11308409E000E94AD03089560E083E00E94AD091C
S113085089E491E00E9437096091680270E080E0C9
S113086090E00E944E0984EA90E00E9437090895BE
S113087060E081E00E94AD090E948B010E9437096B
S1130880089560E082E00E94AD090E94A7010E94E1
S11308903709089560E083E00E94AD090E94CA010F
S11308A00E943709089560E081E00E94AD090E942A
S11308B0CA010E9437090895CF92DF92EF92FF9206
S11308C06B017C0160E082E00E94AD0984E591E067
S11308D00E943709C701B6010E944E0984EA90E0DC
S11308E00E943709FF90EF90DF90CF900895809198
S11308F060008A3088F466E082E00E94AD0960E01E
S113090070E0CB010E944E096091600070E080E0CD
S113091090E00E944E090BC066E082E00E94AD099F
S11309206091600070E080E090E00E944E098AE3EC
S11309300E944C08809161008A3088F469E082E06A
S11309400E94AD0960E070E0CB010E944E09609105
S1130950610070E080E090E00E944E090BC069E005
S113096082E00E94AD096091610070E080E090E057
S11309700E944E098AE30E944C08809167028A30E3
S113098088F46CE082E00E94AD0960E070E0CB0185
S11309900E944E096091670270E080E090E00E943E
S11309A04E090BC06CE082E00E94AD0960916702C1
S11309B070E080E090E00E944E0960E083E00E94D5
S11309C0AD0982E690E00E94370960915F02709160
S11309D0600280916102909162020E944E098CE251
S11309E092E00E94370960916302709164028091E1
S11309F06502909166020E944E0981E392E00E9492
S1130A00370908950E944A0960E082E00E94AD0916
S1130A1085E392E00E9437090895CF92DF92EF9226
S1130A20FF921F93CF93DF93C0905F02D090600238
S1130A30E0906102F0906202E3E6F2E0D08111817D
S1130A40C0E00AC06C2D8C2F90E00E94280CCD2CA5
S1130A50DE2CEF2CFF24CF5FC430A0F3C0E009C02C
S1130A608C2F90E06D2F04960E94280CD12F10E05B
S1130A70CF5FC230A8F3DF91CF911F91FF90EF9029
S1130A80DF90CF9008950F931F93CF93DF9310922D
S1130A905F0210926002109261021092620210E0F2
S1130AA02AC0C12FD0E0CE010E94340C90E0A0E017
S1130AB0B0E0CC0FDD1FCC0FDD1FCC0FDD1F04C059
S1130AC0880F991FAA1FBB1FCA95D2F740915F02D6
S1130AD0509160026091610270916202842B952BA7
S1130AE0A62BB72B80935F0290936002A0936102C0
S1130AF0B09362021F5F1430A0F21092630210924E
S1130B0064021092650210926602C0E02AC00C2FA3
S1130B1010E0C80104960E94340C000F111F000F4E
S1130B20111F000F111F90E002C0880F991F0A9532
S1130B30E2F7AC0160E070E080916302909164029E
S1130B40A0916502B0916602842B952BA62BB72B3E
S1130B508093630290936402A0936502B09366024B
S1130B60CF5FC230A0F2DF91CF911F910F91089512
S1130B706091600086E090E00E94280C6091610022
S1130B8087E090E00E94280C6091670288E090E082
S1130B900E94280C089586E090E00E94340C809313
S1130BA0600087E090E00E94340C8093610088E04C
S1130BB090E00E94340C8093670208950E946000C4
S1130BC00E944A0988E492E00E9437090E94C707FC
S1130BD08234E1F70E9443050E94CB0568EE71E080
S1130BE080E00E945F0C86E191E00E944D0D0E941E
S1130BF0E90C68EE73E080E090E00E94F30C80E082
S1130C000E94340D0E94AD03C0916802D0E00E949E
S1130C104B07C81BD10925974CF40E944B0790E061
S1130C2020916802821B910905976CF10E944B0781
S1130C308093680291E09093B10190915E029130AB
S1130C4081F41092690210925E02282F30E040E095
S1130C5050E060911B0270E080E090E00E9473021B
S1130C6012C0E0919E00F0919F008081811105C027
S1130C70911103C00E94380406C0813021F49111FF
S1130C8002C00E9424040E94C70790E0FC01F1976F
S1130C90E131F10508F0B8CFE65DFF4F0C94D80DB3
S1130CA00E949A01E0919E00F0919F008081811141
S1130CB007C080915E02811103C00E94410406C0F6
S1130CC080915E02813011F40E9448021092690200
S1130CD010925E0299CF0E94870080915E0281305B
S1130CE011F40E9448021092690210925E028CCFA5
S1130CF00E947301E0919E00F0919F008081811118
S1130D0007C080915E02811103C00E94380406C0AE
S1130D1080915E02813011F40E94480210926902AF
S1130D2010925E0271CF80E00E94D2031092690299
S1130D3010925E0269CF81E00E94D2031092690290
S1130D4010925E0261CF0E94B601E0919E00F09184
S1130D509F008081811107C090915E02911103C0B0
S1130D600E944A040FC0813039F480915E028111DF
S1130D7003C00E94530406C080915E02813011F4C6
S1130D800E9448021092690210925E023DCF609167
S1130D901B02683CC8F56B5F60931B02E0919E00E8
S1130DA0F0919F0080818130A9F090915E029111B1
S1130DB011C02091680230E040E050E070E080E033
S1130DC090E00E947302E0919E00F0919F0081E008
S1130DD080831AC0813051F480915E02811106C073
S1130DE070E080E090E00E945C040EC080915E029E
S1130DF0813051F42091680230E040E050E070E02E
S1130E0080E090E00E9473021092690210925E02E8
S1130E10FBCE60911B026623C9F1655060931B02EF
S1130E20E0919E00F0919F0080818130A9F0909123
S1130E305E02911111C02091680230E040E050E060
S1130E4070E080E090E00E947302E0919E00F091D7
S1130E509F0081E080831AC0813051F480915E024A
S1130E60811106C070E080E090E00E945C040EC036
S1130E7080915E02813051F42091680230E040E0BC
S1130E8050E070E080E090E00E94730210926902EA
S1130E9010925E02B9CE80E00E946C0A28EC829F18
S1130EA0C001112460E570E00E94A50D862F693C05
S1130EB008F088EC089561E084E20E94880A0895AD
S1130EC061E084E20E94110B2FEF81EE94E0215047
S1130ED080409040E1F700C0000060E084E20E949E
S1130EE0110B089561E084E20E94110B2FEF81EE53
S1130EF094E0215080409040E1F700C0000060E0A1
S1130F0084E20E94110B2FEF81EE94E02150804087
S1130F109040E1F700C0000061E084E20E94110B00
S1130F202FEF81EE94E0215080409040E1F700C023
S1130F30000060E084E20E94110B089561E083E206
S1130F400E94880A61E082E20E94880A61E081E2EC
S1130F500E94880A61E083E20E94110B61E082E250
S1130F600E94110B61E081E20E94110B60E08FE2AC
S1130F700E94880A60E08EE20E94880A60E08DE2A6
S1130F800E94880A60E08BE20E94880A08959F927A
S1130F90AF92BF92CF92DF92EF92FF920F931F9383
S1130FA0CF93DF93CDB7DEB72F970FB6F894DEBF9C
S1130FB00FBECDBF83E2898382E28A8381E28B8381
S1130FC08FE28C838EE28D838DE28E8389E0EDE166
S1130FD0F2E0DE01179601900D928A95E1F7D12C8B
S1130FE09924939442C0AD2CB12CE1E0F0E0EC0FD5
S1130FF0FD1FEA0DFB1DC08060E08C2D0E94110BCB
S113100010E02CC0E12EF12CE4E0F0E0EC0FFD1F29
S1131010EE0DFF1D0081802F0E949A0B81111DC0CF
S11310202FEF83EF91E0215080409040E1F700C022
S11310300000802F0E949A0B81110FC0F501EE0F62
S1131040FF1FEA0DFB1D81E090E08C0F9D1FE80F50
S1131050F91FEE0DFF1D968003C01F5F133090F241
S113106061E08C2D0E94110BD39492E09D1508F041
S1131070BACF892D2F960FB6F894DEBF0FBECDBF21
S1131080DF91CF911F910F91FF90EF90DF90CF9060
S1131090BF90AF909F900895CF93C82F61E08DE0EB
S11310A00E94110BC4FB662760F984E10E94110BB6
S11310B0C5FB662760F985E10E94110BC6FB662714
S11310C060F986E10E94110B6C2F661F6627661F6C
S11310D088E10E94110B61E08CE00E94110B8FE902
S11310E09FE00197F1F700C0000060E08CE00E94EF
S11310F0110B8FE99FE00197F1F700C000006C2FFE
S1131100617084E10E94110BC1FB662760F985E1DF
S11311100E94110BC2FB662760F986E10E94110B45
S1131120C3FB662760F988E10E94110B61E08CE043
S11311300E94110B8FE99FE00197F1F700C00000B6
S113114060E08CE00E94110B8FE19EE40197F1F7BF
S113115000C00000CF910895CF93C82F60E08DE0C8
S11311600E94110BC4FB662760F984E10E94110BF5
S1131170C5FB662760F985E10E94110BC6FB662753
S113118060F986E10E94110B6C2F661F6627661FAB
S113119088E10E94110B61E08CE00E94110B8FE941
S11311A09FE00197F1F700C0000060E08CE00E942E
S11311B0110B8FE99FE00197F1F700C000006C2F3D
S11311C0617084E10E94110BC1FB662760F985E11F
S11311D00E94110BC2FB662760F986E10E94110B85
S11311E0C3FB662760F988E10E94110B61E08CE083
S11311F00E94110B8FE99FE00197F1F700C00000F6
S113120060E08CE00E94110B8FE19EE40197F1F7FE
S113121000C00000CF91089561E084E10E94880A33
S113122061E085E10E94880A61E086E10E94880A03
S113123061E088E10E94880A61E08DE00E94880AEA
S113124061E08CE00E94880A83E30E94AC0882E398
S11312500E94AC0888E20E94AC088CE00E94AC08B2
S113126082E00E94AC0881E00E94AC0808950F93CC
S11312701F93CF938C01C0E003C00E944C08CF5F42
S1131280F801EC0FF11D80818111F7CFCF911F91EF
S11312900F91089581E00E94AC080895CF92DF92E7
S11312A0EF92FF921F93CF93DF93CDB7DEB72A97C8
S11312B00FB6F894DEBF0FBECDBF6B017C01FE01FB
S11312C031968AE0DF011D928A95E9F7FF205CF4EC
S11312D0F094E094D094C094C11CD11CE11CF11C86
S11312E08DE20E944C0810E0C701B6012AE030E00C
S11312F040E050E00E94B90DE1E0F0E0EC0FFD1F8A
S1131300E10FF11D17FDFA956083C22ED32EE42E52
S1131310F52E1F5FC114D104E104F10429F70DC0B7
S11313201150E1E0F0E0EC0FFD1FE10FF11D17FD9E
S1131330FA958081805D0E944C0811168CF32A96E0
S11313400FB6F894DEBF0FBECDBFDF91CF911F91D2
S1131350FF90EF90DF90CF900895CF93DF9300D06C
S113136000D0CDB7DEB790E8998390EC9A8394E9E6
S11313709B8394ED9C83E1E0F0E0EC0FFD1FE80F0C
S1131380F11D8081860F0E94AC080F900F900F9082
S11313900F90DF91CF910895823071F018F481306D
S11313A031F00895833069F0843081F0089561E06C
S11313B080E10E94880A089561E08FE00E94880A13
S11313C0089561E08EE00E94880A089561E08BE14F
S11313D00E94880A0895823071F018F4813031F047
S11313E00895833069F0843081F0089561E080E1EC
S11313F00E94110B089561E08FE00E94110B089583
S113140061E08EE00E94110B089561E08BE10E947F
S1131410110B0895823071F018F4813031F0089581
S1131420833069F0843081F0089560E080E10E94A7
S1131430110B089560E08FE00E94110B089560E0A5
S11314408EE00E94110B089560E08BE10E94110B65
S11314500895813059F028F0823069F0833081F0AA
S1131460089560E08FE20E94880A089560E08EE2A9
S11314700E94880A089560E08DE20E94880A089517
S113148060E08BE20E94880A089561E085E20E9490
S1131490880A089585E20E94DE0B089560E085E2E3
S11314A00E94110B089587B1806487B987B18F7743
S11314B087B987B18F7D87B986B1816086B986B1D6
S11314C0826086B986B1846086B986B18F7D86B91B
S11314D086B1806886B9089596B1906496B997B13B
S11314E0907E97B997B1892B87B980E090E0DC01B1
S11314F005C00196A11DB11D349907C0803824E8A8
S113150092072EE1A207B105A0F384B195B1089525
S11315109DEC899F912D1124292F2695269526959A
S1131520220F322F330F330F230F821B282F969550
S113153096959695662319F06130E1F108959230FD
S1131540A9F018F4913031F008959330D9F0943023
S113155029F108953AB381E090E002C0880F991F01
S11315602A95E2F7809583238ABB089537B381E0F7
S113157090E002C0880F991F2A95E2F78095832393
S113158087BB089534B381E090E002C0880F991FAF
S11315902A95E2F78095832384BB089531B381E0D3
S11315A090E002C0880F991F2A95E2F78095832363
S11315B081BB08959230A1F018F4913031F0089570
S11315C09330C9F0943011F108953AB381E090E07A
S11315D002C0880F991F2A95E2F7832B8ABB0895CE
S11315E037B381E090E002C0880F991F2A95E2F793
S11315F0832B87BB089534B381E090E002C0880F49
S1131600991F2A95E2F7832B84BB089531B381E0B7
S113161090E002C0880F991F2A95E2F7832B81BBC3
S113162008959DEC899F912D1124292F26952695A7
S11316302695220F322F330F330F230F821B282FAF
S1131640969596959695662319F06130E1F1089583
S11316509230A9F018F4913031F008959330D9F014
S1131660943029F108953BB381E090E002C0880FE3
S1131670991F2A95E2F7809583238BBB089538B38D
S113168081E090E002C0880F991F2A95E2F78095C7
S1131690832388BB089535B381E090E002C0880FAE
S11316A0991F2A95E2F78095832385BB089532B369
S11316B081E090E002C0880F991F2A95E2F7809597
S11316C0832382BB08959230A1F018F4913031F055
S11316D008959330C9F0943011F108953BB381E03B
S11316E090E002C0880F991F2A95E2F7832B8BBBE9
S11316F0089538B381E090E002C0880F991F2A95BD
S1131700E2F7832B88BB089535B381E090E002C0F3
S1131710880F991F2A95E2F7832B85BB089532B36E
S113172081E090E002C0880F991F2A95E2F7832B8D
S113173082BB08959DEC899F912D1124292F269514
S113174026952695220F322F330F330F230F821B3A
S1131750282F892F869586958695823091F018F4E6
S1131760813031F029C08330A9F08430E1F024C005
S113177089B390E002C0959587952A95E2F7817028
S1131780089586B390E002C0959587952A95E2F76F
S11317908170089583B390E002C0959587952A954A
S11317A0E2F78170089580B390E002C09595879523
S11317B02A95E2F78170089580E008959DEC899F51
S11317C0912D1124292F269526952695220F322F07
S11317D0330F330F230F821B282F892F869586956D
S11317E086958230A1F018F4813031F00895833069
S11317F0C9F0843011F108953BB381E090E002C058
S1131800880F991F2A95E2F783278BBB089538B375
S113181081E090E002C0880F991F2A95E2F78327A0
S113182088BB089535B381E090E002C0880F991F0A
S11318302A95E2F7832785BB089532B381E090E0CF
S113184002C0880F991F2A95E2F7832782BB089567
S1131850E199FECF8EBB9FBB6DBB8CB384608CBB08
S11318608CB382608CBB0895E199FECF8EBB9FBB85
S11318708CB381608CBB8DB30895813071F018F006
S11318808230A9F01AC085B7816085BF85B78260B0
S113189085BF8BB780648BBF10C085B7846085BF5C
S11318A085B7886085BF8BB780688BBF06C084B757
S11318B0806484BF8BB780628BBF78940895813035
S11318C049F018F0823059F00895709379026093CA
S11318D0780208957093750260937402089570936A
S11318E077026093760208951F920F920FB60F92BB
S11318F011242F933F934F935F936F937F938F9311
S11319009F93AF93BF93EF93FF93E0917802F0918D
S113191079020995FF91EF91BF91AF919F918F91BA
S11319207F916F915F914F913F912F910F900FBED7
S11319300F901F9018951F920F920FB60F921124BB
S11319402F933F934F935F936F937F938F939F93C3
S1131950AF93BF93EF93FF93E0917402F0917502FC
S11319600995FF91EF91BF91AF919F918F917F91D5
S11319706F915F914F913F912F910F900FBE0F90F8
S11319801F9018951F920F920FB60F9211242F9348
S11319903F934F935F936F937F938F939F93AF93F3
S11319A0BF93EF93FF93E0917602F091770209954C
S11319B0FF91EF91BF91AF919F918F917F916F9123
S11319C05F914F913F912F910F900FBE0F901F90F9
S11319D0189583B78F7B83BF83B7877F83BF89B70E
S11319E0816089BF08950F931F939B01AC01A8EEFA
S11319F0B3E00E94DE0D8B019C01689415F83695C6
S1131A002795179507951694D1F7DC01CB01072E7E
S1131A107EE0B695A795979587957A95D1F7702D21
S1131A208093700290937102A0937202B093730238
S1131A3000936F020023A9F0019502BF8091700208
S1131A4090917102A0917202B09173020196A11D4E
S1131A50B11D8093700290937102A0937202B093AF
S1131A6073021F910F910895882319F0813059F062
S1131A70089583B7816083BF83B78D7F83BF83B7A6
S1131A80846083BF08958EB581608EBD8EB58D7FD1
S1131A908EBD8EB584608EBD089590937B02809335
S1131AA07A0208951F920F920FB60F9211242F936A
S1131AB03F934F935F936F937F938F939F93AF93D2
S1131AC0BF93EF93FF9380916B0290916C02A0916E
S1131AD06D02B0916E020196A11DB11D80936B023F
S1131AE090936C02A0936D02B0936E0240917002C9
S1131AF0509171026091720270917302841795077C
S1131B00A607B70789F4E0917A02F0917B02099560
S1131B1010926B0210926C0210926D0210926E027F
S1131B2080916F02819582BFFF91EF91BF91AF9138
S1131B309F918F917F916F915F914F913F912F91E1
S1131B400F900FBE0F901F90189597FB072E16F459
S1131B50009407D077FD09D00E94E90D07FC05D059
S1131B603EF4909581959F4F0895709561957F4FB0
S1131B700895052E97FB1EF400940E94D00D57FD86
S1131B8007D00E94FD0D07FC03D04EF40C94D00D39
S1131B9050954095309521953F4F4F4F5F4F089595
S1131BA090958095709561957F4F8F4F9F4F0895C5
S1131BB0EE0FFF1F0590F491E02D09940E941F0E73
S1131BC0A59F900DB49F900DA49F800D911D11248D
S1131BD00895AA1BBB1B51E107C0AA1FBB1FA61770
S1131BE0B70710F0A61BB70B881F991F5A95A9F7C2
S1131BF080959095BC01CD010895A1E21A2EAA1BEF
S1131C00BB1BFD010DC0AA1FBB1FEE1FFF1FA217A8
S1131C10B307E407F50720F0A21BB30BE40BF50BA5
S1131C20661F771F881F991F1A9469F7609570952E
S1131C30809590959B01AC01BD01CF010895A29FB1
S1131C40B001B39FC001A39F700D811D1124911D8C
S1131C50B29F700D811D1124911D0895F894FFCF3A
S1131C600A234B4D3A200000000000000000000051
S1131C7000000000000054494D453A2000000000D7
S1131C8000000000000000000000444154453A20D8
S1131C904D4F4E202D2031382F3033000000A0004E
S1131CA0000102046B6D2F682020004D4F544F52E9
S1131CB02054454D503A20004F494C204C45564540
S1131CC04C3A20004655454C204C4556454C3A204C
S1131CD000312F340000000000000000000000006C
S1131CE00000000000322F3400000000000000005B
S1131CF0000000000000000000332F34000000004A
S1131D0000000000000000000000000000342F3438
S1131D1000000000000000000000000000000000BF
S1131D2000444D2053543A204F4646000000000022
S1131D300000000000444D2053543A204F4E200030
S1131D400000000000000000004355525220535090
S1131D50443A20005350454544204C494D3A200014
S1131D60534C2053543A4F464620000000000000D4
S1131D7000000000534C2053543A4F4E2000000002
S1131D80000000000000000001424120535441546F
S1131D9055533A4F464600000000000000424120DF
S1131DA05354415455533A4F4E2000000000000054
S1131DB000014352205354415455533A204F464650
S1131DC00000000000004352205354415455533A3C
S1131DD0204F4E20000000000000DC014E5244520F
S1131DE04E44205354415455533A204E00000000B1
S1131DF0000000524E44205354415455533A204459
S1131E0000000000000000524E4420535441545539
S1131E10533A2052000000000000003201313233F6
S1131E20353637394142204B4D202000204B4D2080
S1131E3000204D20002021212121205741524E49CC
S1131E404E47202121212100504C45415345205328
S10F1E505441525420454E47494E450071
S9030000FC
